:020000040800F2
:10000000680600206D0100087501000877010008EE
:10001000790100087B0100087D0100080000000054
:100020000000000000000000000000007F01000848
:10003000810100080000000083010008850100081C
:100040008701000887010008870100088701000870
:100050008701000887010008870100088701000860
:100060008701000887010008870100088701000850
:100070008701000887010008870100088701000840
:100080008701000887010008870100088701000830
:100090008701000887010008870100088701000820
:1000A0008701000887010008870100088701000810
:1000B0006D0A000887010008870100088701000811
:1000C00087010008870100088701000887010008F0
:1000D00087010008870100088701000887010008E0
:1000E00087010008870100088701000800F002F876
:1000F00000F02CF80AA090E8000C82448344AAF196
:100100000107DA4501D100F021F8AFF2090EBAE893
:100110000F0013F0010F18BFFB1A43F0010318473B
:10012000680F0000780F000000230024002500263F
:10013000103A28BF78C1FBD8520728BF30C148BF4A
:100140000B6070471FB51FBD10B510BD00F031F832
:100150001146FFF7F7FF00F013FD00F04FF803B46E
:10016000FFF7F2FF03BC00F057F800000948804792
:1001700009480047FEE7FEE7FEE7FEE7FEE7FEE789
:10018000FEE7FEE7FEE7FEE704480549054A064BA1
:1001900070470000150A0008ED0000086800002004
:1001A000680600206802002068020020704770473F
:1001B0007047754600F02CF8AE4605006946534678
:1001C00020F00700854618B020B5FFF7DDFFBDE839
:1001D00020404FF000064FF000074FF000084FF0AE
:1001E000000BAC46ACE8C009ACE8C009ACE8C009FB
:1001F000ACE8C00921F007018D46704710B50446F0
:10020000AFF300802046BDE81040FFF7A8BF000014
:10021000004870470000002001491820ABBEFEE7EF
:10022000260002007047000080B500F0C9F84620A3
:10023000FF21012200F0A8F980BD000080B582B046
:100240000DF1060246202021022300F0EBF8BDF854
:100250000600000400BA00F0A9FE00F07BFE43F2A5
:100260003333C3F6F3734FF0333200F0C7FC00F0C2
:1002700093FC02B080BD0000B0B54FF6FF72A9B18B
:100280004FF0000C4AF2010E10F80C305A400823CF
:100290008EEA5204D507A3F1010308BF54081A04DB
:1002A0002246F5D10CF1010C8C45EDD190B2B0BDD8
:1002B000014640F26000C2F2000001607047000099
:1002C000B0B5044600F062FC054600BF00F05EFCDD
:1002D000401BA042FAD3B0BD41F21800C4F20200A4
:1002E00001684FF0007241F0050101604FF6000017
:1002F00040F60401CFF6FF70C4F201010A5008680D
:1003000020F070400860086840F040500860704776
:100310002DE9F041CA7802F00F0CD30644BF8B7868
:100320004CEA030C09880B0621D0056800234FF026
:1003300001084FF00F0E002608E000BF282A08BF72
:1003400047610136082E03F104030FD008FA06F7BF
:100350000F42F6D00EFA03F425EA04040CFA03F572
:10036000482A45EA0405E9D10761EAE70560B1F5E5
:10037000807F38BFBDE8F081446800234FF4807E61
:100380004FF00F08002607E0282A08BF4761013612
:10039000082E03F1040310D00EFA06F707EA010550
:1003A000BD42F4D108FA03F5AC430CFA03F5482A30
:1003B00044EA0504E8D10761E9E74460BDE8F0815B
:1003C00010B586B00920012100F064FA4FF4001046
:1003D000012100F053FAC02045F20044C1F6034069
:1003E000C4F20004059004F5384005A9FFF790FF1A
:1003F0004FF48040ADF8100040F64050C0F20300CA
:1004000001900020CBF6FF7002900B20039001A911
:10041000204600F06FF92046012100F035F906B0C2
:1004200010BD00002DE9F04F81B045F20044C4F248
:1004300000048846824647F65F1540F2010B2046CD
:10044000012199460092CFF6FE75C0F2030B00F031
:1004500025F92E462046594600F00AF9013601D00A
:100460000028F7D0002E00F08B80822620465146CF
:100470000022C0F2070600F0ADF92F4620463146B3
:1004800000F0F6F8013701D00028F7D0002F77D020
:10049000B8F1FF0F10D02046414600F0A3F9023614
:1004A0002F4600BF2046314600F0E2F8013701D068
:1004B0000028F7D0002F63D02046012100F0EEF88D
:1004C0002E4600BF2046594600F0D2F8013601D032
:1004D0000028F7D0002E53D02046012100F0BEF8AE
:1004E00020465146012200F075F90BF1010600BFCC
:1004F0002046314600F0BCF8013501D00028F7D085
:10050000002D3DD048F2A068B9F1000FC0F20108FB
:1005100017D00BF13F05DDF800B0002708F1010A04
:10052000564600BF2046294600F0A2F8013E01D001
:100530000028F7D046B1208A0BF8070001374F4555
:10054000EED10120E0B102E00020B046C0B120466B
:10055000002100F083F820464FF2FF7100F030F9DF
:100560002046012100F0A4F820464FF4003100F0AD
:10057000A9F8A8F10101414502D200288846F3D12B
:1005800001B0BDE8F08F00002DE9F04F81B045F2D9
:10059000004B47F65F19C4F2000B8A460546CFF6BA
:1005A000FE795846012190464C4600F077F8012626
:1005B000C0F203064F4600BF5846314600F058F8D7
:1005C000013701D00028F7D0002F43D084265846A9
:1005D00029460022C0F2070600F0FCF8B51E2746A7
:1005E0005846294600F044F8013701D00028F7D0DA
:1005F00087B3BAF1FF0F0ED05846514600F0F2F81B
:10060000254600BF5846314600F032F8013501D08A
:100610000028F7D0F5B15846414600F0E3F800BF96
:100620005846314600F024F8013401D00028F7D0B4
:1006300084B15846012100F03BF809F1010500BFE3
:1006400058464FF4003100F03DF81DB1002805F187
:100650000105F5D101B0BDE8F08F00000288002946
:1006600042F4806308BF22F4806303807047000077
:10067000828A008B60F3174202EA0100401AB0FA46
:1006800080F04009704700000288002942F0010311
:1006900008BF22F001030380704700000288002990
:1006A00042F4807308BF22F4807303807047000017
:1006B0000288002942F4007308BF22F4007303800B
:1006C0007047000082B00022019200920090080F53
:1006D00001900198002821F07F40009906BF000C8E
:1006E00018311431009100990968084018BF0120A1
:1006F00002B0704770B586B0044680880D4620F081
:100700003F0601A800F0D2F803994DF68360C4F2C9
:100710001B30A1FB000346EA9340A080208820F014
:10072000010020802A6848F2A060C0F201008242E5
:100730004FEA934008D85200B1FBF2F14FF6FC7239
:10074000114208BF042125E0EB884BF6FF76B34247
:1007500004D102EB4202B1FBF2F105E019235A4346
:10076000B1FBF2F141F480414FF49672504344F6EC
:10077000D352C1F26202A0FB020208466FF31F309F
:10078000B0FA80F04009084348F20001CFF6FF714B
:100790000143900901302084A18320884FF6F53170
:1007A00040F00100208020886A890840A988084319
:1007B00010432080A88929890843208106B070BD94
:1007C0000288B1F5006F22F4006308BF42F40063B1
:1007D0000380704741F00103002A08BF01F0FE03C7
:1007E000038270470182704780B5FFF775FD4FF4B3
:1007F000165000F06FF900F04DF9FFF715FD80BDC0
:1008000010B586B0FFF71AFD01AC01460120224663
:1008100000F012F80146204600F08CF940F60C007A
:10082000C4F20100016881F4004101604FF47A7064
:10083000FFF746FD06B010BD10B5144645F2AA52AA
:10084000C0F20042A071012022604FF42062E071EA
:100850000846A280FFF72CFD0330072110F801297C
:10086000631801310B295A70F8D120460C21FFF78B
:1008700003FD41BA0E20A18110BD0000002941F204
:100880001C01C4F202010A680CBF22EA00001043F6
:1008900008607047002941F21801C4F202010A6899
:1008A0000CBF22EA000010430860704710B541F207
:1008B0000404C4F20204226802F00C02082A41F285
:1008C0000022C0F27A021CD12368D4F800C0C3F31E
:1008D000834E5FEACC330EF1020C06D440F60012D0
:1008E000C0F23D020CFB02F20BE023689B0302D432
:1008F0000CFB02F205E040F60012C0F23D020CFBD8
:1009000002F20260226841F27603C2F30312C0F6DB
:1009100000039A5C0168D14041602268C2F3022260
:100920009A5C21FA02F282602268C2F3C2229A5CC7
:1009300041F27203D140C1602268C0F60003C2F3E5
:1009400081329A5CB1FBF2F1016110BD80B500F01B
:1009500001F880BD82B041F204000021C4F202001F
:100960000191009150F8041C41F4803140F8041CBE
:1009700050F8041C01F400310091019901310191FA
:10098000009919B90199B1F5A06FF1D150F8041C83
:10099000890354BF0021012100910099012936D11A
:1009A00042F20001C4F202010A6842F010020A6039
:1009B0000A6822F007020A600A6842F002020A602E
:1009C0000168016001680160016841F480610160B3
:1009D000016821F47C110160016841F4E8110160B3
:1009E00050F8041C41F0807140F8041C50F8041CBD
:1009F0008901FBD5016821F003010160016841F024
:100A000002010160016801F00C010829FAD102B06D
:100A10007047000080B541F20000C4F20200016896
:100A2000002241F0010101604168CFF6FF02114050
:100A3000416001684FF6FF72CFF6F6621140016027
:100A4000016821F480210160416821F4FE014160C8
:100A50004FF41F018160FFF779FF4EF60850CEF288
:100A600000004FF00061016080BD00001020C4F262
:100A700000000188C90708BF7047018821F0010103
:100A8000018040F26400C2F200000168013101609F
:100A90007047000080B541F21C00C4F202000168FA
:100AA00041F0010101600C20C4F200004721818364
:100AB00040F2E7310184018841F0010101804FF0EB
:100AC0008040018841F00101018000F051F800F000
:100AD00047F880BD41F21801C4F202010A6844F2ED
:100AE00004031A430A6040F60401C4F201010A68D3
:100AF00022F0F0020A600A6842F0B0020A600A6856
:100B000022F470620A600A6842F480620A604AF263
:100B10000021C0F24A41B1FBF0F043F60C01C4F2EF
:100B2000010121F8040C088842F22C0210430880CD
:100B300070470000002908BF704743F600034FF0DC
:100B4000000CC4F2010300BF1A881206FCD510F88D
:100B50000C200CF1010C8C459A80F5D170470000F7
:100B60004EF20010CEF200004FF08051016070474D
:100B70004EF21C40CEF200001021017070470000C0
:100B8000FFF732FEFFF73CFEFCE7000040F2640096
:100B9000C2F200000068704721F0004201F00043FB
:100BA000A2F16052B2F5801F28BFD2F17F6C0BD941
:100BB0005FEA001C43EAC20242EB507018BF704764
:100BC00028BF20F001007047B2F5801FBCBF184657
:100BD00070474FEA410C1CF5001F02D2084600F096
:100BE00043BA70B500F062F900000089FFF7F6BF64
:100BF0004FF00040A0F58000704700002DE9C04193
:100C000030B4DFF8A0C23CEA111418BF3CEA131458
:100C100000F0EC801CEA111481EA030544EAD57463
:100C200018BF1CEA131500F0C780A4EB050404F1FB
:100C30007F7404F500344FF0004545EAC12145EAD0
:100C4000C32341EA505143EA52534FEAC0204FEACE
:100C5000C222994208BF904200F09C804FEA13657F
:100C60000FF24016765D4FEA134506FB05F7C7F114
:100C7000807706FB07F74FEAD737A7FB0368764272
:100C8000A7FB06CEC8F5803838BFA8F1010807FBDE
:100C900008E6A6FB028C4FF0000EE6FB03CEDCF16B
:100CA000000CCEF1004E38BFAEF1010EA6FB0C5881
:100CB0004FF00007E6FB0E87A1FB08C6A0FB07CE9E
:100CC00016EB0E064FF0000545F10005E1FB076548
:100CD00015F1E04E7EBFA4F580345FEA46066D4113
:100CE00016F1800745F100054FEA172747EA056727
:100CF0004FEA15254FEA0666A6F1DE46B6F1805F9B
:100D00001FD9384605EBC47124F0010C01EB0C111E
:100D1000BCF1FE6F02D8F0BCBDE8008124425CBF8C
:100D200001F5801E9EEAC47F02D4F0BCBDE80081BC
:100D3000244238D4A1F1C041F0BCBDE8004100F02C
:100D400003B94FEAD02040EA41504FEAD1214FEA9F
:100D5000D22242EA43524FEAD323A7FB028607FB83
:100D6000036605FB02661EEA0E0F58BFA6EB00568F
:100D7000B6EB00564FEA520E4EEAC37E18EB0E0E4B
:100D800056EB530EBDD518EB02085E417F1C55F1A2
:100D90000005B6E74FF480154FF000074FF000064E
:100DA0004FF00008ADE701F1C04101F000414FF004
:100DB0000000F0BCBDE800810CEA131511EA0C1F1D
:100DC00000D00CE013EA0C1F00F025804FF000006B
:100DD00081EA030101F00041F0BCBDE80081F0BCF4
:100DE000BDE8004181EA030100F0AEB8F0BCBDE807
:100DF000004170B500F05AF8097EFC3E00F007B8DB
:100E00004FF0000081EA030101F00041704781EAE0
:100E1000030100F099B8F0BCBDE8004122494FF051
:100E200000007047FFFDFBF9F7F5F4F2F0EEEDEB93
:100E3000E9E8E6E4E3E1E0DEDDDBDAD8D7D5D4D3D8
:100E4000D1D0CFCDCCCBCAC8C7C6C5C4C2C1C0BF24
:100E5000BEBDBCBBBAB9B8B7B6B5B4B3B2B1B0AF2A
:100E6000AEADACABAAA9A8A8A7A6A5A4A3A3A2A10E
:100E7000A09F9F9E9D9C9C9B9A99999897979695C9
:100E800095949393929191908F8F8E8E8D8C8C8B65
:100E90008B8A8989888887878685858484838382ED
:100EA000828181800000FF070000F87F0EF1020EB2
:100EB0002EF0030E5EF8046B364205D4012A43EB94
:100EC000030515F5001F12D8012841EB010C1CF594
:100ED000001F0CD80ED14FEAD17C0CEB4C0C0CF15E
:100EE000020C15F5001F08BF4CEBD37C04E04FF05B
:100EF000080C01E04FEAD37C0CEB4C0526FA05F612
:100F000006F00706B6F1040C06D20EEB860CBDE81F
:100F100070404CF0010C6047DFE80CF0090B020256
:100F20004FF00041A1F500214FF0000070BD1946BF
:100F30001046012851EB010418BFD4F5001484BFFA
:100F4000002001F0004170BD0808A0F500114FEA33
:100F50003101704743004FEAD30C4FEA3C0C434049
:100F60001FBF40070CF1605113F0FE4F70471CF09B
:100F7000006F03D10CF00041002070470CF00043DB
:100F800043EA507040EACC0010B500F027F800BFEB
:100F9000000000924FEA0001FFF7D6BF4FF000417A
:100FA000A1F500214FF000007047000010F0004153
:100FB00048BF4042B0FA80F310FA03F2C3F19D0338
:100FC0000BD051EAC35101EB1220530638BF7047D2
:100FD00000F1010008BF20F0010070470EF1020E81
:100FE0002EF0030E5EF8044B244204D44FEA410273
:100FF000B2F17F4F11D84FEA4003B3F17F4F0CD8C5
:101000000ED14FEAD07C0CEB4C0C0CF1020CB2F17F
:101010007F4F08BF4CEBD17C04E04FF0080C01E09F
:101020004FEAD17C0CEB4C0324FA03F404F00704E0
:10103000B4F1040C06D20EEB840CBDE810404CF069
:10104000010C6047DFE80CF0070802024FF0004097
:10105000A0F5800010BD0846420018BFD2F1807292
:1010600088BF00F0004010BDFF2141EAD050C0050C
:101070007047020406080000000001020304010298
:10108000030406070809000098100008000000206B
:081090006806000028010008B9
:04000005080000ED02
:00000001FF
